:020000040800F2
:10000000C0070020D1150008490200084B02000873
:100010004F020008530200085702000800000000C9
:100020000000000000000000000000005B0200086B
:100030005D020008000000005F0200086102000885
:10004000EB150008EB150008EB150008EB15000890
:10005000EB150008EB150008EB150008EB15000880
:10006000EB150008EB150008EB150008EB15000870
:10007000EB150008EB150008EB150008EB15000860
:10008000EB150008EB150008EB150008EB15000850
:10009000C10C0008EB150008EB150008EB15000873
:1000A000EB150008EB150008EB150008EB15000830
:1000B000EB1500088B0B0008A70B0008EB150008D8
:1000C000EB150008EB150008EB150008EB15000810
:1000D000EB150008A3140008EB150008EB15000849
:1000E000EB150008EB150008EB150008EB150008F0
:1000F000EB150008EB150008EB150008EB150008E0
:10010000EB150008EB150008EB150008EB150008CF
:10011000EB150008EB150008EB150008EB150008BF
:10012000EB150008EB150008EB150008EB150008AF
:1001300000F002F800F03AF80AA090E8000C8244BF
:100140008344AAF10107DA4501D100F02FF8AFF29C
:10015000090EBAE80F0013F0010F18BFFB1A43F0A5
:1001600001031847783D0000983D0000103A24BF75
:1001700078C878C1FAD8520724BF30C830C144BF0C
:1001800004680C607047000000230024002500264E
:10019000103A28BF78C1FBD8520728BF30C148BFEA
:1001A0000B6070471FB51FBD10B510BD03F066FE94
:1001B0001146FFF7F7FF00F009F803F084FE03B4DF
:1001C000FFF7F2FF03BC01F011F9000001F0A4F801
:1001D0004FF4A06001F01CFA4FF4E13001F015F982
:1001E000232142F2273000F077FC472141F287308B
:1001F00000F09FFC00F005FA21E000F004FC10483C
:10020000007801281BD100200D49087061210D489C
:1002100002F05DF900F02EFC04462146094802F088
:1002200056F900F02AFC04462146064802F04FF930
:1002300000F01DFC04462146024802F048F9DCE7C4
:100240003E00002000380140704700BFFEE700BFBD
:10025000FEE700BFFEE700BFFEE77047704770474C
:10026000704700000CB50020019000906C480068B9
:1002700040F480306A49086000BF6948006800F4B3
:10028000003000900198401C0190009818B9019826
:10029000B0F5A06FF1D16248006800F4003010B1F1
:1002A0000120009001E0002000900098012843D137
:1002B0005C48006840F010005A4908600846006831
:1002C00020F0030008600846006840F00200086063
:1002D00053484068524948600846406848600846AC
:1002E000406840F4806048600846406820F47C1014
:1002F00048600846406840F4E810486008460068D6
:1003000040F08070086000BF4548006800F0007051
:100310000028F9D04248406820F003004049486076
:100320000846406840F00200486000BF3C48406812
:1003300000F00C000828F9D10CBD10B5FFF792FFB2
:1003400010BD10B53648006840F00100344908601F
:10035000084640683449084031494860084600680A
:10036000324908402E4908600846006820F4802081
:1003700008600846406820F4FE0048604FF41F0003
:100380008860FFF7DAFF4FF000602949086010BD70
:1003900010B5002100200022214B5B6803F00C0106
:1003A00021B1042906D0082928D107E0214B224C8D
:1003B000236027E01F4B204C236023E0184B5B6831
:1003C00003F47010164B5B6803F48032022303EBD6
:1003D000904022B9194B4343174C23600DE0104B5A
:1003E0005B6803F4003323B1144B4343124C236086
:1003F00003E0104B4343104C236003E00D4B0E4CC5
:10040000236000BF00BF064B5B68C3F303130C4CB3
:10041000E15C094B1B68CB40074C236010BD00001A
:1004200000100240002002400000FFF8FFFFF6FE2F
:1004300008ED00E000127A000000002000093D00F5
:100440000400002000B587B001214FF4017001F0D5
:1004500091FE4FF4004001F0F1FD0220ADF80400E0
:1004600000208DF8070001A92E4801F0C7FB2E4897
:1004700001F03CF9002002908DF80C008DF80D0081
:100480004FF4602004900020059001208DF81800A2
:1004900002A9254801F051F90121234801F079F919
:1004A000214801F098F900BF1F4801F099F9002890
:1004B000FAD11D4801F09EF900BF1B4801F09FF9D9
:1004C0000028FAD107B000BD10B50446042301226C
:1004D0002146154801F0C9F90121134801F099F9A5
:1004E00000BF0221104801F005FB0028F9D00E489A
:1004F00001F022FA10BD2DE9F04107460C46002517
:10050000002608E03846FFF7DFFF0544052000F02D
:1005100040FF701CC6B2A642F4DBB5FBF4F080B21B
:10052000BDE8F081000801400024014008B500202A
:10053000009006E000BF00BF9DF80000401CC0B264
:1005400000909DF800000128F4DB08BD10B50421DF
:10055000FE4801F000FCFFF7E9FF0821FB4801F02D
:10056000FAFBFFF7E3FF0421F84801F0F6FBFFF781
:10057000DDFF0821F54801F0F0FB002411E0FFF752
:10058000D5FFFFF7D3FF0821F04801F0E4FBFFF7A8
:10059000CDFFFFF7CBFF0821EC4801F0DEFB601C2C
:1005A000C4B27F2CEBDBFFF7C1FFFFF7BFFF0821D1
:1005B000E64801F0D0FBFFF7B9FFFFF7B7FF0821CE
:1005C000E24801F0CAFB10BD08B50121042001F08A
:1005D000D1FD0C20ADF8000010208DF803000320A1
:1005E0008DF802006946D94801F008FB0821D74878
:1005F00001F0B3FB0421D54801F0AFFBFFF722FF68
:1006000008BD10B5FFF7E0FFFFF7A0FF10BDD04811
:100610000078D0490978401ACF4908600868002856
:1006200001DB014600E04142282903DA1420CB49CE
:10063000087002E00520C9490870C64800786E2895
:100640001BDDC748008840F2DC51884203DA0846C7
:10065000C34908800CE0BE480078BE490978401ABA
:10066000BE490978BE4A128800FB0120BC490880B7
:10067000BB480088BB4908801EE0B64800785A286D
:100680001ADAB7480088B0F57A4F04DD4FF6E85023
:10069000B34908800CE0AE480078AE490978401AAA
:1006A000AE490978AE4A128800FB0120AC490880A7
:1006B000AB480088AB490880A94800884FF4FA612C
:1006C00090FBF1F0A84908707047A8490978A84A3A
:1006D0001278881800EBD071C1F34701A54A117058
:1006E000A5480078102803DCA3480078042803DA22
:1006F0000120A24908700AE0A1480068142803DA22
:1007000001209E49087002E000209C4908709B4827
:10071000007820B9974800789A49088003E0994802
:10072000007894490870704790490978904A127887
:10073000881800EBD071C1F347018E4A11708E48C2
:100740000078142814DA8F4800781146087078B1C0
:100750008D480078401C8C49087008460078322883
:1007600009DD01208949087000208749087002E0EE
:100770000020854908707F480078824908807047CA
:1007800030B502460024002304E011F8015B2C443C
:10079000581CC3B29342F8DBB4FBF2F0C0B230BDD8
:1007A00010B500247A498020FFF7EAFF69490870F4
:1007B000774800787749087001240DE07448005D9F
:1007C00074490978884205DD7148005D71490870F7
:1007D00008460470601CC4B2802CEFDB5D480078D2
:1007E0006C490978084440106B49086000240EE009
:1007F0006748005D68490968884203DD0120674950
:10080000085502E0002065490855601CC4B2802CE0
:10081000EEDB604800785A280CDD5D485D490978B8
:10082000415C5C4800780C38594A105C081A5449FD
:1008300008600BE0564857490978415C0246554824
:1008400000780C30105C081A4D49086003241BE046
:100850005248005D48B9601E5049085C012804D127
:10086000601C085C012800D108554948005D01283A
:1008700008D1601E4949085C20B9601C085C08B9B1
:1008800000200855601CC4B27E2CE1DB4148007892
:10089000762830DA3F4800780A282CDD3D48047875
:1008A00007E03E48005D10B93048047003E0601E68
:1008B000C4B20A2CF5DC00BF0A2C02D100202B495F
:1008C00008703448047807E03448005D10B92848BF
:1008D000047003E0601CC4B2762CF5DB00BF762CFC
:1008E00002D1802022490870214800781F490978E8
:1008F000401A2149087010BD70B504460421134800
:1009000001F029FAFFF712FE0821104801F023FA3E
:10091000FFF70CFE04210D4801F01FFAFFF706FE59
:10092000002503E0FFF702FE681CC5B2C82DF9DB05
:100930000821064801F00FFA0120FFF7C5FDC0F3BA
:1009400007102070641C0821004829E000080140BD
:10095000200000201F000020380000203000002070
:100960001A0000202C040040180000201C00002069
:100970001D000020140000201E0000202100002087
:1009800028000020160000203C000020220000204B
:100990005C0000202C00002024000020DC0000204F
:1009A00001F0DBF90A2000F0D0FC002518E0FFF789
:1009B000BDFDFFF7BBFD08213C4801F0CCF9FFF776
:1009C000B5FDFFF7B3FD0120FFF77EFDC0F3071073
:1009D0002070641C0821354801F0BFF9681CC5B2BD
:1009E0007F2DE4DBFFF7A2FDFFF7A0FD08212F48D4
:1009F00001F0B1F9FFF79AFDFFF798FD08212B48A8
:100A000001F0ABF970BD10B529480078012816D166
:100A10000020274908702748FFF76EFFFFF7C0FE48
:100A20002548007810B1012806D102E0FFF77CFECE
:100A300002E0FFF74AFE00BF00BFFFF7E8FD10BD70
:100A40001E48007870471E480078704770B504460D
:100A50000025002605E01B498020FFF791FE054494
:100A6000761CA642F7D3B5FBF4F5E8B270BD164884
:100A700000787047154800787047154800780528B9
:100A80000CDA1348007800EB4001C1EBC0104FF6C0
:100A9000FF7101EAC0000F49088003E041F288308D
:100AA0000C4908800A48007870470000000801409F
:100AB0003D0000205C000020220000201C000020DF
:100AC0001D000020DC0000201E000020140000207B
:100AD000180000202C0800407FB505460C46012177
:100AE000022001F054FBADF80850ADF8044000209E
:100AF000ADF80A00ADF8060001A9324802F080FB0B
:100B0000012211462F4802F0F2FE1D208DF8000050
:100B100002208DF8010003208DF8020001208DF8DD
:100B20000300684600F079FD0121264802F0C4FE6A
:100B30007FBD7FB505460C460121042001F027FB4F
:100B4000ADF80850ADF804400020ADF80A00ADF84B
:100B5000060001A91C4802F053FB012211461A4865
:100B600002F0C5FE1E208DF8000003208DF8010064
:100B70008DF8020001208DF80300684600F04DFD5D
:100B80000121114802F098FE7FBD10B501210D48EA
:100B900003F05BF930B101210A4803F067F9012045
:100BA0000A49087010BD10B50121074803F04DF93E
:100BB00030B10121044803F059F9012004490870BB
:100BC00010BD000000040040000800403D0000206F
:100BD0003E0000202DE9F0418AB004460D4616463D
:100BE0001F46DDF840800121042001F0C3FA0121F5
:100BF000480601F0CCFA4FF48050ADF824000320F1
:100C00008DF8260018208DF8270009A9FD4800F06E
:100C1000F5FF4FF40060ADF8240048208DF8270060
:100C200009A9F84800F0EAFF00208DF81E008DF8B1
:100C30001F008DF820008DF821008DF822008DF81E
:100C400023008DF81A808DF81B408DF81C608DF8FC
:100C50001D50ADF8187006A9EB4801F01EFD0020EC
:100C60008DF812008DF8130001208DF8140000207B
:100C7000ADF80800ADF80A00ADF80C00ADF80E00B4
:100C8000ADF8100001208DF8150002A801F08FFDCD
:100C900001220221DC4802F089F814208DF80400BA
:100CA00001208DF8050000208DF8060001208DF848
:100CB000070001A800F0B1FC00200AB0BDE8F081F7
:100CC00010B586B0002401AA0021CF4801F053FFDF
:100CD00006B010BDF0B585B007460D4600243020A3
:100CE0000090019000208DF808008DF809008DF823
:100CF0000A5000BF05E0395D0DF10B000155601C85
:100D000084B2AC42F7DB6946BF4801F03FFE0646BD
:100D1000002401E0601C84B23146BB4801F0CEFEE5
:100D2000012803D040F6FF708442F3DB40F6FF70E9
:100D3000844202DB012005B0F0BD0020FBE770B566
:100D400086B00446002530200190029000208DF8E6
:100D50000C008DF80D0001208DF80E008DF80F406D
:100D600001A9A94801F012FE064600BFA748047079
:100D700001E0681C85B23146A34801F09FFE0128BE
:100D800003D040F6FF708542F3DB40F6FF708542EA
:100D900002DB012006B070BD0020FBE730B585B056
:100DA000002430200090019000208DF808008DF87C
:100DB000090001208DF80A00944800788DF80B0096
:100DC0006946914801F0E2FD054600BF01E0601C64
:100DD00084B229468C4801F071FE012803D040F608
:100DE000FF708442F3DB40F6FF70844202DB012097
:100DF00005B030BD0020FBE700208549097831B1FE
:100E0000012909D002290CD0032914D10EE05A205F
:100E100001217F4A11700FE0502002217C4A11709D
:100E20000AE0502003217A4A117005E05A2000217F
:100E3000774A117000E000BF00BF704770B586B000
:100E40000546002433200190029000208DF80C000C
:100E50008DF80D0001208DF80E008DF80F5001A9BE
:100E6000694801F093FD064600BF01E0601C84B2B2
:100E70003146654801F022FE012803D040F6FF709C
:100E80008442F3DB40F6FF70844202DB012006B0AF
:100E900070BD0020FBE730B585B0054600215A48FB
:100EA00001F0ECFE10B9002005B030BD6A4600210B
:100EB000554801F060FE002404E00DF10B00005DD8
:100EC0002855641C082CF8D39DF80A00ECE72DE99E
:100ED000F04F89B006460F4614461D46DDF848809F
:100EE0004FF00009CA46CB46B5F5807F43D012DCEF
:100EF000102D34D008DC012D25D0022D26D0042D54
:100F000027D0082D4FD127E0202D2BD0402D2CD0DD
:100F1000802D48D12CE0B5F5805F38D009DCB5F5DF
:100F2000007F2BD0B5F5806F2BD0B5F5006F3AD18F
:100F30002AE0B5F5005F2DD0B5F5804F2DD0B5F581
:100F4000004F30D12CE04FF000092DE04FF00109A7
:100F50002AE04FF0020927E04FF0030924E04FF0A8
:100F6000040921E04FF005091EE04FF006091BE0DF
:100F70004FF0070918E04FF0080915E04FF0090994
:100F800012E04FF00A090FE04FF00B090CE04FF0B0
:100F90000C0909E04FF00D0906E04FF00E0903E0DF
:100FA0004FF00F0900E000BF00BFB8F5807F53D0BD
:100FB0001ADCB8F1100F43D00CDCB8F1010F33D0BC
:100FC000B8F1020F33D0B8F1040F33D0B8F1080FE5
:100FD0005AD132E0B8F1200F35D0B8F1400F35D0FA
:100FE000B8F1800F50D134E0B8F5805F40D011DC0B
:100FF000B8F5007F33D0B8F5806F33D0B8F5006F07
:1010000042D132E000080140006400403F0000206F
:1010100040000020B8F5005F2DD0B8F5804F2DD0EE
:10102000B8F5004F30D12CE04FF0000A2DE04FF022
:10103000010A2AE04FF0020A27E04FF0030A24E0F9
:101040004FF0040A21E04FF0050A1EE04FF0060AB7
:101050001BE04FF0070A18E04FF0080A15E04FF0C8
:10106000090A12E04FF00A0A0FE04FF00B0A0CE0F9
:101070004FF00C0A09E04FF00D0A06E04FF00E0A9F
:1010800003E04FF00F0A00E000BF00BF9F4830446C
:1010900018B1B0F5806F13D10AE000208DF80E0072
:1010A00014208DF800000121480601F070F808E0D6
:1010B0000E208DF80E000121880601F068F800E08E
:1010C00000BF00BF9249601A8C4223D009DC9148CE
:1010D000204480B1B0F5806F12D0B0F5006F2DD1F3
:1010E00013E0B0F5806F1AD0B0F5006F1CD0B0F5EA
:1010F000406F23D11DE00121042001F03BF81EE0E8
:101100000121082001F036F819E00121102001F03A
:1011100031F814E00121202001F02CF80FE001212A
:10112000402001F027F80AE00121802001F022F898
:1011300005E00121080201F01DF800E000BF00BF3A
:10114000ADF8208018208DF8230003208DF82200B0
:1011500008A9204600F052FDADF8205048208DF837
:10116000230008A9204600F049FD00208DF81A0050
:101170008DF81B008DF81C008DF81D008DF81E00E9
:101180008DF81F008DF816008DF8170004208DF8DB
:10119000180002208DF819007D2F22D008DC0A2FBC
:1011A0000FD0142F11D0322F13D0642F29D114E077
:1011B000FA2F1AD0B7F5FA7F1BD0B7F57A7F20D176
:1011C0001BE0C820ADF814001CE06420ADF814004A
:1011D00018E02820ADF8140014E01420ADF8140035
:1011E00010E01020ADF814000CE00820ADF8140059
:1011F00008E00420ADF8140004E00220ADF814006B
:1012000000E000BF00BF0820ADF8140005A930467B
:1012100001F043FA00208DF80F0001208DF8100036
:101220000020ADF80400ADF80600ADF80800ADF8F8
:101230000A00ADF80C0001208DF8110001A801F0A2
:10124000B6FA00208DF801008DF8020001208DF81B
:101250000300684600F0E1F901220221304601F066
:10126000A5FD09B0BDE8F08F70B586B00546002435
:1012700030200190029000208DF80C008DF80D00B8
:1012800001208DF80E008DF80F5001A91F48404233
:1012900001F07CFB064601E0601C84B231461B482D
:1012A000404201F00BFC012803D040F6FF7084425D
:1012B000F2DB40F6FF70844202DB012006B070BD15
:1012C0000020FBE72DE9F04186B080460D4616462A
:1012D0001F4600240021404601F0D0FC18B9002030
:1012E00006B0BDE8F08101AA0021404601F043FCB0
:1012F000002405E00DF10F00005D3055601CC4B204
:10130000BC42F7DB019828600120E9E7009CFFBFA1
:101310000014014000F8FEBF10B56FF0040000F0AB
:10132000C6F92E4800682E49B0FBF1F02D4908702F
:101330000846007800EB4001C1EBC0104FF6FF718A
:1013400001EAC0002849088010BD0146254A1278EC
:101350004A434FF0E0235A6100229A611A4612690B
:1013600042F001021A6100BF4FF0E022106900F064
:1013700001021AB100F48032002AF5D04FF0E022C9
:10138000126922F001024FF0E0231A6100229A61F3
:1013900070470146144A12884A434FF0E0235A61CD
:1013A00000229A611A46126942F001021A6100BFD6
:1013B0004FF0E022106900F001021AB100F480320F
:1013C000002AF5D04FF0E022126922F001024FF01E
:1013D000E0231A6100229A6170470000000000209B
:1013E00000127A004200002044000020014600BFA5
:1013F000704700BF744A128802F04002002AF9D0F8
:10140000C2B2714B1B1D1A80704710B586B00446DE
:10141000012144F2040000F0ADFE4FF40070ADF87D
:10142000140003208DF8160018208DF8170005A968
:10143000664800F0E3FB4FF48060ADF81400042030
:101440008DF8170005A9614800F0D8FB25208DF81C
:10145000000003208DF801008DF8020001208DF8B6
:101460000300684600F0D9F801940020ADF80800A8
:10147000ADF80A00ADF80C00ADF810000C20ADF886
:101480000E0001A9504800F01CFF012240F2255136
:101490004D4800F0AEFF01214B4800F09EFF06B022
:1014A00010BD10B540F22551474801F098F818B129
:1014B000454801F021F8C4B210BD70B505462C11A5
:1014C0000A2C0CDA04F130013F4801F000F800BFAB
:1014D00040213D4800F0EEFF0128F9D10CE004F175
:1014E000370081B2384800F0F2FF00BF4021364893
:1014F00000F0E0FF0128F9D105F00F040A2C0CDA06
:1015000004F13001304800F0E2FF00BF40212E48D6
:1015100000F0D0FF0128F9D10CE004F1370081B2CE
:10152000294800F0D4FF00BF4021274800F0C2FF47
:101530000128F9D170BD70B5044600262A21224841
:1015400000F0C5FF00BF40211F4800F0B3FF012895
:10155000F9D14C211C4800F0BAFF00BF40211A48C5
:1015600000F0A8FF0128F9D14421174800F0AFFF8F
:1015700000BF4021144800F09DFF0128F9D1002050
:10158000FFF79BFF0020FFF798FF0020FFF795FF74
:101590000020FFF792FF002505E014F8010BFFF78C
:1015A0008CFF681CC5B2802DF7DB3046FFF785FF46
:1015B0002321054800F08BFF00BF4021024800F0C6
:1015C00079FF0128F9D170BD0038014000080140C1
:1015D0000948804709480047FEE7FEE7FEE7FEE7C7
:1015E000FEE7FEE7FEE7FEE7FEE7FEE70448054903
:1015F000054A064B7047000043030008310100080C
:10160000C0010020C0070020C0030020C00300204C
:1016100031490143314A1160704770B50021002300
:101620000F22C47804B32D4C246804F4E064C4F59C
:10163000E064210AC1F10403CA40447804FA03F1CA
:101640008478144021430901254C0678A15504787B
:1016500004F01F050124AC4005786D11AD0005F1C3
:10166000E025C5F8004109E0047804F01F050124D5
:10167000AC401C4D0678761145F8264070BD1A4ADC
:101680000A400243154B1B1F1A60704739B1134AB9
:10169000121D12680243114B1B1D1A6006E00F4A0F
:1016A000121D126882430D4B1B1D1A6070470428DF
:1016B00008D14FF0E021096941F004014FF0E02228
:1016C000116107E04FF0E021096921F004014FF0BA
:1016D000E0221161704700000000FA050CED00E007
:1016E00000E400E080E100E080FFFF1F10B5044649
:1016F000FA48844208D10121401500F055FD00212F
:10170000601500F051FD17E0F548844208D1012131
:10171000001500F049FD0021201500F045FD0BE00B
:10172000F048844208D10121C80300F03DFD0021AA
:101730004FF4004000F038FD10BD30B502460020E7
:1017400000235068E84C20400D790C6844EA0524D9
:10175000204350609068E54C2040D1E902542C436E
:101760004D7944EA450420439060D06A20F470002B
:101770000C7C641EE4B2234340EA0350D06230BDC7
:1017800000210160017141718160C160012101741A
:10179000704721B1826842F00102826003E08268F2
:1017A00022F001028260704721B1826842F48072A7
:1017B000826003E0826822F480728260704710B514
:1017C0000023CBB21AB144681C43446002E0446871
:1017D0009C43446010BD816841F0080181607047FE
:1017E000014600208A6802F008020AB1012000E0E8
:1017F00000207047816841F0040181607047014614
:1018000000208A6802F004020AB1012000E00020F2
:10181000704721B1826842F4A002826003E08268CE
:1018200022F4A00282607047014600208A6802F418
:1018300080020AB1012000E00020704710B50A467E
:1018400000210023416821F46041531E41EA4331E5
:10185000416010BD21B1426842F40062426003E081
:10186000426822F4006242607047F0B504460D46BB
:1018700000200021092D11DDE068A5F10A0606EB24
:101880004607072606FA07F18843A5F10A0606EB84
:10189000460603FA06F10843E0600CE0206905EB18
:1018A0004507072606FA07F1884305EB450603FAC4
:1018B00006F108432061072A0FDA606B561E06EB1B
:1018C00086071F2606FA07F18843561E06EB860692
:1018D00005FA06F10843606322E00D2A0FDA206B57
:1018E000D61F06EB86071F2606FA07F18843D61F88
:1018F00006EB860605FA06F10843206310E0E06A6D
:10190000A2F10D0606EB86071F2606FA07F18843AB
:10191000A2F10D0606EB860605FA06F10843E06221
:10192000F0BD21B1826842F48012826003E08268D7
:1019300022F48012826070470146C86C80B2704702
:1019400066484C300068704721B1426842F48062BA
:10195000426003E0426822F480624260704721B135
:10196000426842F48052426003E0426822F48052AE
:10197000426070470A460021816821F4E04111432A
:101980008160704721B1826842F40042826003E0C6
:10199000826822F400428260704721B1826842F47A
:1019A0000212826003E0826822F4021282607047B1
:1019B000014600208A6802F400120AB1012000E00A
:1019C00000207047F0B5044615460020002200268E
:1019D000092911DDE068A1F10A0707EB470C072789
:1019E00007FA0CF29043A1F10A0707EB470703FA45
:1019F00007F21043E0600CE0206901EB410C07277F
:101A000007FA0CF2904301EB410703FA07F2104387
:101A10002061A06BC0F30156EF1C06F1010CA7EB8F
:101A20000C0707EB870C1F2707FA0CF29043EF1CFB
:101A300006F1010CA7EB0C0707EB870701FA07F289
:101A40001043A063F0BD10B50A4600210023816B4E
:101A500021F44011531E41EA0351816310BD08B5C2
:101A6000002300930090009B0B440093009B1A609E
:101A700008BD08B5024600200090009201F1280040
:101A8000009B184400900098006880B208BD0A4688
:101A900000214168164B1940114341607047416273
:101AA000826270470A460021416821F01F011143FC
:101AB0004160704740B109490831096841F40001AB
:101AC000064A0832116007E004490831096821F428
:101AD0000001024A083211607047000000240140F2
:101AE00000280140003C0140FFFEF0FFFDF7F1FF40
:101AF000FFFD3FFF0246002013680B400BB10120A1
:101B000000E000207047CA430260704770B502468B
:101B10000020002300240B125568CEB205EA06040B
:101B200015681D4015B10CB1012000E0002070BD0A
:101B300000220A12D34303607047000010B5044628
:101B4000CC48844208D10121042000F02DFB002163
:101B5000042000F029FB46E0C748844208D1012157
:101B6000082000F021FB0021082000F01DFB3AE0D6
:101B7000C248844208D10121102000F015FB002149
:101B8000102000F011FB2EE0BD48844208D1012155
:101B9000202000F009FB0021202000F005FB22E0BE
:101BA000B848844208D10121402000F0FDFA00210C
:101BB000402000F0F9FA16E0B348844208D1012130
:101BC000802000F0F1FA0021802000F0EDFA0AE018
:101BD000AE48844207D10121801500F0E5FA0021CA
:101BE000A01500F0E1FA10BD10B50121084600F083
:101BF000DBFA0021012000F0D7FA10BD2DE9F041F9
:101C0000024600250026002000230024002791F82A
:101C100003C00CF00F0591F803C00CF0100CBCF1E0
:101C2000000F03D091F802C04CEA050591F800C0FE
:101C3000BCF1000F31D0146800202BE04FF0010CF4
:101C40000CFA00F3B1F800C00CEA03069E4220D162
:101C500083004FF00F0C0CFA03F7BC4305FA03FCAA
:101C60004CEA040491F803C0BCF1280F06D14FF0F0
:101C7000010C0CFA00FCC2F814C00AE091F803C091
:101C8000BCF1480F05D14FF0010C0CFA00FCC2F872
:101C900010C0401C0828D1D31460B1F800C0BCF1BA
:101CA000FF0F34DD546800202EE000F1080C4FF0E7
:101CB000010808FA0CF3B1F800C00CEA03069E42D2
:101CC00021D183004FF00F0C0CFA03F7BC4305FA47
:101CD00003FC4CEA040491F803C0BCF1280F05D1C1
:101CE00000F1080C08FA0CF8C2F8148091F803C04F
:101CF000BCF1480F07D100F1080C4FF0010808FAB9
:101D00000CF8C2F81080401C0828CED35460BDE8FF
:101D1000F0814FF6FF710180022181700421C170B2
:101D200070470246002093680B400BB1012000E091
:101D3000002070470146886880B270470246002044
:101D4000D3680B400BB1012000E000207047014632
:101D5000C86880B2704701617047416170470AB13D
:101D6000016100E041617047C16070474FF480320B
:101D70000A43826181618261826982697047024699
:101D80000020434B18684FF68073184040EA021059
:101D900008433F4B186070473E49C8617047F0B533
:101DA0000A46002300240021002500F00046B6F179
:101DB000004F02D1364EF16901E0354E7168C0F333
:101DC000034583B200F44016B6F5401F08D121F058
:101DD00070612F4E766826F070662D4F7E6012E09F
:101DE00000F48016B6F5801F06D1032606FA05F426
:101DF000A14341F0706106E0460D360103FA06F694
:101E0000B14341F0706122B1460D360103FA06F686
:101E1000314300F00046B6F1004F02D11C4EF16193
:101E200001E01B4E7160F0BD30B500228B071C0F26
:101E30000F2303FA04F2164B08338C1053F82430A6
:101E40009343134C08348D1044F8253023468C10EE
:101E500053F824308C07240F00FA04F423430C4C6D
:101E600008348D1044F8253030BD0A49DC31086053
:101E70007047000000080140000C014000100140C4
:101E80000014014000180140001C014000200140E6
:101E90000000014000002042DF48006840F00100DF
:101EA000DD49086008464068DC490840DA49486076
:101EB00008460068DA490840D749086008460068C3
:101EC00020F4802008600846406820F4FE00486046
:101ED0004FF41F0088607047CF49096821F48031B2
:101EE000CD4A11601146096821F480211160B0F5D6
:101EF000803F03D0B0F5802F0ED106E0C6490968B7
:101F000041F48031C44A116007E0C349096841F4D3
:101F1000A021C14A116000E000BF00BF704710B5AA
:101F200001460022002300204A11012A02D1BA4CA6
:101F3000236806E0022A02D1B74C236A01E0B64CBE
:101F4000636A01F01F02012494401C400CB101207F
:101F500000E0002010BD38B50020009000240025CE
:101F600000BF3120FFF7DBFF05460098401C0090C2
:101F70000098B0F5A06F01D0002DF2D03120FFF70E
:101F8000CEFF08B1012400E00024204638BD014600
:101F90000020A14A106820F0F80040EAC10010605B
:101FA0007047A04908607047024600209A4B586865
:101FB00020F47C1042EA01031843974B58607047A5
:101FC00098490866704701460020934A506820F0FF
:101FD00003000843506070478F48406800F00C00D1
:101FE0007047014600208C4A506820F0F0000843FA
:101FF0005060704701460020874A506820F4E06036
:1020000008435060704701460020834A506820F41E
:10201000605040EAC1005060704729B17E4A527A50
:1020200002437D4B5A7204E07B4A527A82437A4BD8
:102030005A7270477B49D8310860704701460020CA
:10204000754A506820F440400843506070470021B2
:10205000714A20321170704A82F82010012802D093
:1020600004280AD104E001216B4A2032117005E0F6
:102070000521694A2032117000E000BF00BF70479F
:102080006949086070476449096A0143624A1162FC
:102090007047654944390860704730B50021002217
:1020A000002400235C4D6D6805F00C0121B104296A
:1020B00005D0082923D105E05C4D056022E05B4D89
:1020C00005601FE0544D6D6805F47012524D6D6847
:1020D00005F48034022505EB92421CB9544D55435A
:1020E00005600BE04C4D6D6805F400351DB1504D99
:1020F0005543056002E04D4D5543056002E04B4DF0
:10210000056000BF00BF444D6D6805F0F00109098E
:10211000484D6B5C0568DD4045603F4D6D6805F4DA
:10212000E061090A434D6B5C4568DD4085603A4DCE
:102130006D6805F46051C90A3E4D6B5C4568DD4031
:10214000C560354D6D6805F44041890B3A4D6B5CB7
:10215000C568B5FBF3F5056130BD29B12E4A52695A
:1021600002432D4B5A6104E02B4A526982432A4BA9
:102170005A61704729B1284A92690243264B9A61F5
:1021800004E0254A92698243234B9A61704729B142
:10219000214AD2690243204BDA6104E01E4AD26927
:1021A00082431D4BDA61704729B11B4AD268024352
:1021B000194BDA6004E0184AD2688243164BDA60A1
:1021C000704729B1144A12690243134B1A6104E0A3
:1021D000114A12698243104B1A6170471249403903
:1021E000086070470F49C86470470B49C871704751
:1021F0000948406A40F080700749486270470146CC
:102200000020054A92680A400AB1012000E000203F
:102210007047014988727047001002400000FFF8C3
:10222000FFFFF6FE000042428004424200127A00A4
:1022300000093D00460000205600002010B504466D
:10224000FB48844209D101218803FFF7ADFF00213B
:102250004FF48040FFF7A8FF32E0F648844209D1EE
:1022600001214804FFF7ADFF00214FF40030FFF7D4
:10227000A8FF25E0F048844209D101218804FFF736
:10228000A0FF00214FF48020FFF79BFF18E0EB48F0
:10229000844209D10121C804FFF793FF00214FF4C4
:1022A0000020FFF78EFF0BE0E548844208D10121B2
:1022B0000805FFF786FF00214FF48010FFF781FF2C
:1022C00010BD2DE9F04786B005460E460024A24613
:1022D00000BFA1460027B08900B100BF2F462C8A5D
:1022E0004CF6FF700440F08804432C82AC894EF613
:1022F000F3100440B08831890843718908430443CE
:10230000AC81AC8A4FF6FF400440B0890443AC82F4
:1023100001A8FFF7C2FEC648874202D1DDF810A02F
:1023200001E0DDF80CA0A88900F4004040B10AEB00
:10233000CA0000EB0A1031684900B0FBF1F807E071
:102340000AEBCA0000EB0A1031688900B0FBF1F813
:102350006420B8FBF0F004012009642101FB10891E
:10236000A88900F4004040B1322000EBC900B0FB66
:10237000F1F000F00700044308E0322000EB091000
:102380006421B0FBF1F000F00F0004432C8106B093
:10239000BDE8F0874FF41651016000218180C180B3
:1023A00001810C21418100218181704710B50246D5
:1023B0000020108A4FF2FF0318400B884C882343FB
:1023C0008C882343CC8823431843108210BD0021FE
:1023D000018041808180C180704721B1828942F4AF
:1023E0000052828104E082894DF6FF731A40828197
:1023F0007047F0B50346002400260025002040F673
:102400006A17B94200D100BF1846C1F3421401F067
:102410001F06012707FA06F5012C01D10C3004E054
:10242000022C01D1103000E014301AB107682F439C
:10243000076002E00768AF430760F0BD1AB1838A06
:102440000B43838202E0838A8B4383827047028A34
:102450004FF6F0731A400282028A0A4302827047E2
:1024600082894FF2FF731A40828182890A438281F6
:10247000704721B1828942F00202828104E08289A0
:102480004FF6FD731A4082817047028A4FF6DF7360
:102490001A400282028A0A430282704721B1028AEC
:1024A00042F48042028204E0028A4BF6FF731A4033
:1024B0000282704702460020B1F5007F00D100BFC4
:1024C00013880B400BB1012000E00020704730B5AD
:1024D00004460D46C5F30800A08000BF40212046F9
:1024E000FFF7E8FF0128F9D100BF80212046FFF760
:1024F000E1FF0128F9D130BD01468888C0F308000A
:102500007047818941F0010181817047028BD2B20D
:102510000283028B42EA012202837047028B02F49B
:102520007F420283028B0A430283704721B1828A71
:1025300042F02002828204E0828A4FF6DF731A4062
:102540008282704721B1828A42F01002828204E0C6
:10255000828A4FF6EF731A408282704721B1828AD5
:1025600042F00802828204E0828A4FF6F7731A4032
:102570008282704721B1828942F40042828103E065
:102580008289C2F30E028281704721B1828A42F4AD
:102590000062828204E0828A4FF2FF731A408282D4
:1025A0007047828A4FF6FB731A408282828A0A43FE
:1025B0008282704721B1828A42F00202828204E064
:1025C000828A4FF6FD731A408282704701F40072CE
:1025D000B2F5007F00D100BFCA430280704770B5DA
:1025E0000246002400230025002040F66A16B1426E
:1025F00000D100BFC1F3421501F01F03012606FA06
:1026000003F3012D02D19689334006E0022D02D159
:10261000168A334001E0968A33400C12012606FAEE
:1026200004F4168834406BB164B101200BE0000063
:10263000003801400044004000480040004C004089
:1026400000500040002070BD10B50022002340F66D
:102650006A14A14200D100BF0A1201249440A3B21F
:10266000DC43048010BD000010B50446FE488442DF
:1026700009D101214806FFF7A4FD00214FF00070A9
:10268000FFF79FFD08E001218806FFF79AFD002172
:102690004FF08060FFF795FD10BD30B50246002079
:1026A0000023146824F002041460146844F0010448
:1026B000146000E05B1C546804F001041CB94FF680
:1026C000FF74A342F6D1546804F001040CB9002051
:1026D0006CE08C79012C04D1146844F080041460FF
:1026E00003E0146824F080041460CC79012C04D138
:1026F000146844F04004146003E0146824F04004BB
:1027000014600C7A012C04D1146844F02004146085
:1027100003E0146824F0200414604C7A012C04D1E6
:10272000146844F01004146003E0146824F01004EA
:1027300014608C7A012C04D1146844F008041460ED
:1027400003E0146824F008041460CC7A012C04D14E
:10275000146844F00404146003E0146824F00404D2
:1027600014608C78A407CD7844EA05640D7944EAB6
:1027700005444D7944EA05540D886D1E2C43D461FF
:10278000146824F001041460002300E05B1C54680A
:1027900004F001041CB14FF6FF74A342F6D1546853
:1027A00004F001040CB1002000E0012030BD10B5A0
:1027B0000021837A012202FA03F1AC4A126842F046
:1027C0000102AA4B1A60A94A1C3212688A43A74B1D
:1027D0001C331A60027BCAB9A44A0C3212688A43BD
:1027E000A24B0C331A604288C38842EA03439F4AD3
:1027F0004032847A42F834300288838842EA0343C4
:102800009A4A4032847A02EBC4025360027B012A66
:1028100019D1964A0C3212680A43944B0C331A6051
:102820004288038842EA0343904A4032847A42F85D
:102830003430C288838842EA03438C4A4032847A27
:1028400002EBC4025360C27A3AB9884A121D126878
:102850008A43864B1B1D1A6006E0844A121D1268CB
:102860000A43824B1B1D1A60028932B97F4A143217
:1028700012688A437D4B14331A600289012A06D1FB
:102880007A4A143212680A43784B14331A60427B36
:10289000012A06D1754A1C3212680A43734B1C3355
:1028A0001A60724A126822F00102704B1A6010BD61
:1028B00000218171C171017241728172C172817096
:1028C000C170032101710221417101210180704712
:1028D0006649096841F00101644A116011460968BE
:1028E00043F60E729143614A11601146096841EA4C
:1028F000002111601146096821F001011160704743
:1029000021B1026842F48032026003E0026822F4DE
:10291000803202607047E1B1026842F080020260DA
:102920004FF4C272125842F480734FF4C2721350C3
:102930004FF4CA72125842F480734FF4CA721350A3
:102940004FF4D272125842F480734FF4D272135083
:102950001BE0026822F0800202604FF4C27212583B
:1029600022F480734FF4C27213504FF4CA7212589B
:1029700022F480734FF4CA7213504FF4D27212587B
:1029800022F480734FF4D2721350704710B5024690
:102990000020936803F08063B3F1806F00D110E0F2
:1029A000936803F00063B3F1006F01D1012008E0E8
:1029B000936803F08053B3F1805F01D1022000E0FF
:1029C0000420042879D002F5C07303EB00131B68C0
:1029D00003F0010402F5C07303EB00131C600B7AD3
:1029E0007BB94B7A0C8843EA445302F5C07404EB7C
:1029F00000142468234302F5C07404EB0014236020
:102A000010E00B7A4C6843EAC4034C7A234302F586
:102A1000C07404EB00142468234302F5C07404EB73
:102A2000001423608B7A03F00F038B7202F5C073DE
:102A300003EB00135B6823F00F0402F5C07303EB94
:102A400000135C6002F5C07303EB00135B688C7AC3
:102A5000234302F5C07404EB001463608B7B1C06F7
:102A60004B7B44EA034403E00064004000660040FE
:102A70000B7B44EA0323CC7A234302F5C07404EBB6
:102A80000014A3608B7C1C064B7C44EA03440B7C43
:102A900044EA0323CC7B234302F5C07404EB001407
:102AA000E36002F5C07303EB00131B6843F00104FD
:102AB00002F5C07303EB00131C6010BD10B5024695
:102AC000002321B1012907D002290FD109E0906824
:102AD000F94C00EA04030BE09068F84C00EA0403A8
:102AE00006E09068F64C00EA040301E0002300BF12
:102AF00000BFF44C181BA34216D007DC83B16FF063
:102B00008060184470B1022818D111E0B0F5007F40
:102B100010D0ED4C204448B1B0F5003F0ED10BE091
:102B200002230DE000230BE0002309E0002307E06F
:102B3000012305E0012303E0012301E0002300BF9E
:102B400000BFD8B210BD21B1012907D002290FD191
:102B500009E0826842F0800282600AE0826842F402
:102B60000042826005E0826842F40002826000E078
:102B700000BF00BF704710B500F5D87303EB011319
:102B80001B6803F004031372137A53B900F5D8736A
:102B900003EB01131B6840F2FF7404EA5353136004
:102BA00009E000F5D87303EB01131B686FF0604474
:102BB00004EAD303536000F5D87303EB01131B68D9
:102BC00003F00203537200F5D87303EB01135B6843
:102BD00003F00F03937200F5D87303EB01135B68E6
:102BE0001B0AD37400F5D87303EB01139B68D372EF
:102BF00000F5D87303EB01139B681C0A147300F5EE
:102C0000D87303EB01139B681C0C547300F5D87345
:102C100003EB01139B681B0E937300F5D87303EB52
:102C20000113DB68D37300F5D87303EB0113DB6882
:102C30001C0A147400F5D87303EB0113DB681C0C39
:102C4000547400F5D87303EB0113DB681B0E937407
:102C500021B9C36843F02003C36003E0036943F074
:102C60002003036110BD21B9C26842F02002C26096
:102C700003E0026942F02002026170470246002030
:102C800019B9D36803F0030006E0012903D11369E1
:102C900003F0030000E00020704710B502460B4629
:102CA00000204FF6FF71BBB9146824F0020444F011
:102CB0000104146000E0491E546804F00304012C70
:102CC00001D00029F7D1546804F00304012C01D08D
:102CD000002032E0012030E0012B13D1146824F0F1
:102CE0000304146000E0491E546804F003040CB1AE
:102CF0000029F8D1546804F003040CB100201CE052
:102D000001201AE0022B17D1146824F0010444F0CA
:102D10000204146000E0491E546804F00304022C0D
:102D200001D00029F7D1546804F00304022C01D02B
:102D3000002002E0012000E0002010BD014600203C
:102D40000A6822F0010242F002020A604A6802F0B8
:102D50000302022A00D10120704701464FF6FF729C
:102D600000200B6823F002030B6000E0521E4B684A
:102D700003F00203022B01D1002AF7D14B6803F0C4
:102D80000203022B00D001207047014600208A690F
:102D900002F070007047014600208A69100E7047EB
:102DA000014600208A69C2F3074070471AB143699F
:102DB0000B43436102E043698B434361704710B5A5
:102DC0000246002001F4700343B19369C1F3130478
:102DD00023400BB101202DE000202BE001F0807397
:102DE00043B15368C1F3130423400BB1012021E028
:102DF00000201FE001F0006343B19368C1F31304A6
:102E000023400BB1012015E0002013E001F0007316
:102E100043B1D368C1F3130423400BB1012009E08F
:102E2000002007E01369C1F3130423400BB1012014
:102E300000E0002010BD0022244B994202D1002363
:102E4000836111E0C1F3130201F000730BB1C260A2
:102E50000AE001F080630BB1026105E001F000635C
:102E60000BB1826000E0426070470246002002EA37
:102E700001030BB1012000E00020704770B504464B
:102E80000D46002660692840002872D0B5F5807F85
:102E900069D01DDC082D42D006DC012D2DD0022D7D
:102EA00031D0042D7FD134E0102D3ED0202D42D0E2
:102EB000402D78D145E00000030000040003000825
:102EC00000000310000100080001FFF77000F0305F
:102ED000B5F5004F61D009DCB5F5007F4AD0B5F5F6
:102EE000806F4DD0B5F5006F5DD150E0B5F5803FF6
:102EF0002DD0B5F5003F56D12FE0A0685549FFF71A
:102F0000B4FF064651E0E0680321FFF7AEFF064636
:102F10004BE0E0680821FFF7A8FF064645E0E068BF
:102F20001021FFF7A2FF06463FE020690321FFF7CB
:102F30009CFF064639E020690821FFF796FF064608
:102F400033E020691021FFF790FF06462DE060680E
:102F50000821FFF78AFF064627E060681021FFF787
:102F600084FF064621E0A0690121FFF77EFF0646A7
:102F70001BE01BE0A0690221FFF777FF064614E083
:102F8000A0690421FFF771FF06460EE00BE0A0697F
:102F90007021FFF76AFF064607E060680421FFF72B
:102FA00064FF064601E0002600BF00E00026304630
:102FB00070BDB1F5007F3AD00FDC202928D006DCA7
:102FC00001291CD004291DD0082940D11DE0402929
:102FD00021D0B1F5807F3AD126E0B1F5004F31D054
:102FE00006DCB1F5806F25D0B1F5006F2FD124E05C
:102FF000B1F5803F12D0B1F5003F28D111E0154A5C
:10300000826025E00822C26022E01022C2601FE038
:10301000082202611CE01022026119E008224260CD
:1030200016E01022426013E00422426010E0042205
:1030300042600DE0042242600AE000228261042224
:10304000426005E0002282610422426000E000BF8D
:1030500000BF70470101010010B50446FE488442DC
:1030600008D10121C014FFF79FF80021E014FFF7F9
:103070009BF8C4E0B4F1804F08D101210846FFF766
:10308000A0F800210120FFF79CF8B8E0F348844243
:1030900008D101210220FFF794F800210220FFF758
:1030A00090F8ACE0EE48844208D101210420FFF7FB
:1030B00088F800210420FFF784F8A0E0E948844262
:1030C00008D101210820FFF77CF800210820FFF734
:1030D00078F894E0E448844208D101211020FFF7F9
:1030E00070F800211020FFF76CF888E0DF48844278
:1030F00008D101212020FFF764F800212020FFF7EC
:1031000060F87CE0DA48844208D101214014FFF7DE
:103110004BF800216014FFF747F870E0D54884426F
:1031200009D10121C804FFF73FF800214FF4002026
:10313000FFF73AF863E0D048844209D1012108053D
:10314000FFF732F800214FF48010FFF72DF856E01A
:10315000CA48844209D101214805FFF725F800211A
:103160004FF40010FFF720F849E0C548844208D129
:1031700001214020FFF725F800214020FFF721F82A
:103180003DE0C048844208D101218020FFF719F8B2
:1031900000218020FFF715F831E0BB48844208D1B8
:1031A00001218015FFF70DF80021A015FFF709F8A0
:1031B00025E0B648844209D101210804FEF7F4FF56
:1031C00000214FF48030FEF7EFFF18E0B048844252
:1031D00009D101214804FEF7E7FF00214FF4003038
:1031E000FEF7E2FF0BE0AB48844208D101218804DE
:1031F000FEF7DAFF00214FF48020FEF7D5FF10BD67
:1032000000220288944B98420ED0994B98420BD0E2
:10321000B0F1804F08D0914B984205D0904B984226
:1032200002D0904B984204D14FF68F731A404B88CE
:103230001A438D4B984207D08C4B984204D04FF6DE
:10324000FF431A40CB881A4302808B8883850B8802
:103250000385814B98420BD0854B984208D08B4B0D
:10326000984205D08A4B984202D08A4B984201D1AD
:103270000B7A038601238382704770B500240022F5
:103280000023058C4FF6FE7635400584028C83883A
:10329000048B4FF68F752C40B51E2C400D882C43A7
:1032A000751E2A400D892A434D882A436A4DA8423B
:1032B0000BD06F4DA84208D0744DA84205D0744D74
:1032C000A84202D0734DA84213D14FF6F7752A4099
:1032D0004D892A434FF6FB752A408D882A434FF6C5
:1032E000FF652B404FF6FF552B408D892B43CD8931
:1032F0002B4383800483CD888586028470BD70B59E
:10330000002400220023058C4FF6EF76354005841B
:10331000028C8388048B48F6FF752C404FF6FF45DE
:103320002C400D884FF6FF7606EA05252C434FF614
:10333000DF752A400D8906EA05152A434D8806EAFD
:1033400005152A43444DA84202D0494DA8421DD13B
:103350004FF67F752A404D894FF6FF7606EA051530
:103360002A434FF6BF752A408D8806EA05152A4381
:103370004FF6FF352B404FF2FF752B408D8906EA43
:1033800085052B43CD8906EA85052B43838004837D
:10339000CD880587028470BD70B50024002200230B
:1033A000058C4FF6FF6635400584028C8388848B3C
:1033B0004FF68F752C404FF6FC752C400D882C4332
:1033C0004FF6FF552A400D894FF6FF7606EA052590
:1033D0002A434D8806EA05252A431F4DA84202D0FC
:1033E000234DA8421DD14FF2FF752A404D894FF65B
:1033F000FF7606EA05252A434FF6FF352A408D88D9
:1034000006EA05252A434EF6FF752B404DF6FF755B
:103410002B408D8906EA05152B43CD8906EA051553
:103420002B4383808483CD888587028470BD70B5EB
:10343000002200230024058C4EF6FF7635400584DB
:10344000038C8488828B48F6FF752A404FF6FF452F
:103450002A400D8820E00000002C014000040040BC
:1034600000080040000C0040001000400014004024
:1034700000340140004C0140005001400054014024
:1034800000180040001C00400020004000400140A7
:1034900000440140004801404FF6FF7606EA05254A
:1034A0002A434DF6FF752B400D8906EA05352B435F
:1034B0004D8806EA05352B43FA4DA84202D0FA4D55
:1034C000A84208D14BF6FF752C408D894FF6FF7648
:1034D00006EA85152C4384808283CD88A0F840506D
:1034E000038470BD828B4FF2FF331A408283828B3C
:1034F0004FF6FF7303EA01231A4382837047F0B546
:103500000C461546002200210026078C4EF6FF7C53
:1035100007EA0C070784828B018C4FF6FF7707EAD6
:10352000043640F6FF473A404FF6FF7707EA052793
:103530003A434FF6FF7707EA03373A43D94FB84289
:103540000ED0D94FB8420BD0B0F1804F08D0D74F32
:10355000B84205D0D64FB84202D0D64FB84206D1B5
:103560004DF6FF77394046F48057394305E047F67A
:10357000FF57394044F48057394382830184F0BDBA
:10358000828B4FF6F3731A408283828B0A438283C5
:103590007047F0B50C461546002200210026078C26
:1035A0004FF6FF6C07EA0C070784828B018C4FF6FD
:1035B000FF7707EA04264FF60C773A404FF6FF777D
:1035C00007EA03172F433A43B64FB8420ED0B64F1F
:1035D000B8420BD0B0F1804F08D0B44FB84205D0FC
:1035E000B34FB84202D0B34FB84206D14FF6FF579F
:1035F000394046F48077394305E04FF2FF573940B0
:1036000044F48077394382830184F0BD028B4FF20A
:10361000FF331A400283028B4FF6FF7303EA012344
:103620001A4302837047F0B50C461546002200216C
:103630000026078C4FF6EF7C07EA0C070784028B05
:10364000018C4FF6FF7707EA041640F6FF473A4031
:103650004FF6FF7707EA03373A434FF6FF7707EA5B
:1036600005273A438F4FB8420ED08F4FB8420BD048
:10367000B0F1804F08D08D4FB84205D08C4FB84282
:1036800002D08C4FB84206D14FF6DF77394046F072
:103690001007394305E04FF65F77394044F01007D3
:1036A000394302830184F0BD028B4FF6F3731A4055
:1036B0000283028B0A4302837047F0B50C4615461D
:1036C00000220021068C4FF6FE773E400684028BD6
:1036D000018C4FF60C7632407E1C06EA03162E4310
:1036E0003243704EB0420ED06F4EB0420BD0B0F1AC
:1036F000804F08D06D4EB04205D06D4EB04202D022
:103700006C4EB04206D14FF6FD76314044F00106D2
:10371000314305E04FF6F576314044F00106314380
:1037200002830184F0BD70B505460C465D488542B4
:103730000ED05D4885420BD0B5F1804F08D05B4874
:10374000854205D05A48854202D05A48854200D168
:1037500000E000BF208850B92389A28861882846EC
:10376000FFF7ABFFE1882846FFF79EFF25E02088A2
:1037700004280AD12389A28861882846FFF753FFCD
:10378000E1882846FFF742FF17E0208808280AD181
:103790002389A28861882846FFF7FBFEE188284636
:1037A000FFF7EEFE09E02389A28861882846FFF72B
:1037B000A6FEE1882846FFF795FE70BD2DE9F04191
:1037C00005460C4600260127608808B9022600E05D
:1037D0000026A088012801D1022700E001272088C7
:1037E000A0B92389A28861882846FFF766FFE1888F
:1037F0002846FFF759FF23893A4631462846FFF706
:1038000012FFE1882846FFF701FF13E02389A28811
:1038100061882846FFF707FFE1882846FFF7F6FE94
:1038200023893A4631462846FFF747FFE188284674
:10383000FFF73AFFBDE8F0810A884B881A438B886E
:103840001A43CB881A430B891A434B891A438B8935
:103850001A43A0F8442070474FF6FF718180002181
:103860000180C18041800172704700210180418048
:103870008180C180018141818181C18170470021A6
:1038800001804180012181800021C1800181704738
:103890000021018041808180C1800181418181813D
:1038A00070470000002C014000340140000400403B
:1038B00000080040000C004021B1028842F00102E3
:1038C000028004E002884FF6FE731A4002807047BF
:1038D00031B1B0F8442042F40042A0F8442005E0A1
:1038E000B0F84420C2F30E02A0F8442070471AB189
:1038F00083890B43838102E083898B4383817047F3
:103900008182704741EA0203A0F8483070471AB13B
:1039100083890B43838102E083898B4383817047D2
:1039200001894FF6F8721140018170470A46002163
:1039300001894FF68F73194011430181704730B5EB
:1039400004460D4629462046FFF7F0FF208940F047
:103950000700208130BD2DE9F04104460D46164692
:103960001F46602D06D13B46012231462046FFF717
:103970005AFE05E03B46012231462046FFF79DFEF8
:1039800029462046FFF7D2FF208940F0070020811A
:10399000BDE8F08130B50C4600210189C9B24FF66F
:1039A000FF7505EA0325154325432943018130BDF1
:1039B0002DE9F04105460E46174698460024434639
:1039C0003A4631462846FFF7E5FF2C894FF6F87056
:1039D000044044F007044FF68F70044044F0700434
:1039E0002C81BDE8F081F0B504460D4616461F4611
:1039F0003B46324629462046FFF7CCFF208940F45B
:103A000080402081F0BD0185828270470A460021F6
:103A100001884FF68F731940114301807047F0B54C
:103A20000C4615461E460021002200230189028B08
:103A3000038C4FF6F877394021434FF6FC473A4064
:103A400040F201173A434FF6DD773B404FF6FF77E0
:103A500007EA06172F433B43018102830384F0BD2D
:103A60000A460021018B4FF68F73194011430183E1
:103A700070470A460021018B48F6FF7319404FF644
:103A8000FF7303EA02231943018370470A460021AA
:103A9000818B4FF68F7319401143818370470A461B
:103AA0000021818B48F6FF7319404FF6FF7303EA3C
:103AB000022319438183704721B1028842F08002BA
:103AC000028004E002884FF67F731A40028070473C
:103AD00021B1828842F00402828004E082884FF69D
:103AE000FB731A408280704721B1828842F008023D
:103AF000828004E082884FF6F7731A408280704714
:103B000021B1828842F00102828004E082884FF66F
:103B1000FE731A40828070470A460021018B4FF6DF
:103B2000F77319401143018370470A460021018B46
:103B30004FF2FF7319404FF6FF7303EA0223194354
:103B4000018370470A460021818B4FF6F7731940B5
:103B50001143818370470A460021818B4FF2FF7326
:103B600019404FF6FF7303EA02231943818370471C
:103B70000A460021018B4FF6FB7319401143018364
:103B800070470A460021018B4FF6FF3319404FF66C
:103B9000FF7303EA02231943018370470A46002199
:103BA000818B4FF6FB7319401143818370470A469E
:103BB0000021818B4FF6FF3319404FF6FF7303EA64
:103BC00002231943818370470A460021018B4FF677
:103BD0007F7319401143018370470A460021018B0E
:103BE000C1F30E014FF6FF7303EA02231943018369
:103BF00070470A460021818B4FF67F7319401143AD
:103C0000818370470A460021818BC1F30E014FF674
:103C1000FF7303EA02231943818370470A46002198
:103C2000018C4FF6FD7319401143018470470A4619
:103C30000021018C4FF6F77319401143018470473E
:103C40000A460021018C4FF6DF7319404FF6FF73CF
:103C500003EA02131943018470470A460021018CCC
:103C60004FF67F7319404FF6FF7303EA02131943AF
:103C7000018470470A460021018C4FF6FF5319401A
:103C80004FF6FF7303EA02231943018470470A4683
:103C90000021018C4FF2FF7319404FF6FF7303EAC6
:103CA00002231943018470470A460021018C4DF616
:103CB000FF7319404FF6FF7303EA0233194301847F
:103CC000704730B5002301248C40A3B2048C9C4380
:103CD0000484048C02FA01F5ADB22C43048430BD97
:103CE00030B5002304248C40A3B2048C9C4304848C
:103CF000048C02FA01F5ADB22C43048430BD70B5DA
:103D00000346002000241846183001258D40ACB22F
:103D10001D8CA5431D8409B1082909D100EB610060
:103D2000056825F0700505600568154305600EE01F
:103D30000D1FC5F34E052844056825F4E0450560D0
:103D400005684FF6FF7606EA02263543056070BD2A
:103D500021B1028842F00202028004E002884FF69C
:103D6000FD731A400280704721B1028842F00402BC
:103D7000028004E002884FF6FB731A40028070470D
:103D800021B1828842F08002828004E082884FF66E
:103D90007F731A408280704702884FF6F7731A408B
:103DA000028002880A430280704782884FF68F7330
:103DB0001A40828082880A438280704702894FF6C7
:103DC000F8731A40028102890A430281704702890E
:103DD0004FF67F731A40028102890A4302817047BD
:103DE000818470478185704781867047018770475D
:103DF00081877047A0F84010704702884FF6FF4354
:103E00001A40028002880A43028070470146888E69
:103E100070470146088F70470146888F70470146FA
:103E2000B1F8400070470146888C70470146088D04
:103E3000704702460020138A0B400BB1012000E0BE
:103E400000207047CA430282704730B50246002006
:103E500000230024158A05EA0103958905EA010477
:103E600013B10CB1012000E0002030BDCA43028232
:103E7000704770477047704770477047754600F04D
:103E800029F8AE4605006946534620F007008546EE
:103E900018B020B5FDF7AAFBBDE820404FF00006A2
:103EA0004FF000074FF000084FF0000B21F0070122
:103EB000AC46ACE8C009ACE8C009ACE8C009ACE865
:103EC000C0098D4670470446AFF300802046FCF7DA
:103ED00076F90000004870475C010020FC3E0008B5
:103EE000000000205C0000006C010008583F000842
:103EF0005C000020640700008801000800A24A045A
:103F00000000000000000000010203040607080989
:103F10004000400000003F1F00000000640000005F
:103F2000000000000000000000003F1F140000001F
:103F30000000000000000000000000000000000081
:103F40000000000000000102030401020304060750
:083F5000080902040608000044
:0400000508000131BD
:00000001FF
